:020000040800F2
:100000001834002005010008595C0008CD010008E3
:10001000555C0008A13B0008716200080000000068
:1000200000000000000000000000000017010008B0
:10003000F93B00080000000057010008135D0008AC
:100040001F0100081F0100081F0100081F01000810
:100050001F0100081F0100081F0100081F01000800
:100060001F0100081F0100081F0100081F010008F0
:100070001F0100081F0100081F0100081F010008E0
:100080001F0100081F0100081F0100081F010008D0
:1000900061620008A53B00081F0100081F0100085D
:1000A0001F0100081F0100081F0100081F010008B0
:1000B0001F0100081F0100081F0100081F010008A0
:1000C0001F0100081F0100081F0100081F01000890
:1000D0001F0100081F010008516200081F010008ED
:1000E000FB3B00081F0100081F010008DFF810D0CB
:1000F00000F03EFD00480047EB0B0008AFF3008026
:10010000183400200648804706480047FEE7FEE70F
:10011000FEE7FEE7FEE7FEE7FEE7FEE7FEE7FEE7B7
:10012000315E0008ED000008EFF3108072B67047F2
:1001300080F310887047324A1368012B04D04FF0C7
:10014000010313602F4A10602F4A11602F484FF0AF
:10015000805101607047EFF3108272B62848016841
:1001600091B14FF0000101602648016829B1EFF319
:10017000098121E9F00F00680160234909680968D5
:10018000B1E8F00F81F3098882F310884EF0040E75
:1001900070471D4908601B494FF00000086018496E
:1001A0004FF0010008601A481A49D0F8002041EACF
:1001B0000201016015484FF0805101601648006847
:1001C000006880F3088861B662B670471EF0040FBD
:1001D0000CBFEFF30880EFF3098020E9F00F40F83F
:1001E00004ED1EF0040F0CBF80F3088880F309882B
:1001F00000B508F06DFC5DF804EB4EF0040E70479E
:1002000098020020900200209402002004ED00E0FB
:1002100020ED00E00000FFFF08ED00E0202A04DBF5
:10022000203A21FA02F00021704721FA02F3D0406F
:10023000C2F12002914008431946704740EA010389
:100240009B0703D009E008C9121F08C0042AFAD28C
:1002500003E011F8013B00F8013B521EF9D2704750
:10026000D2B201E000F8012B491EFBD270470022F8
:10027000F6E710B513460A4604461946FFF7F0FFA5
:10028000204610BD421E12F8013F002BFBD111F891
:10029000013B02F8013B002BF9D1704710B5044631
:1002A00004E00B7800F8013B03B1491C521EF8D260
:1002B000204610BD421C10F8011B0029FBD1801AFA
:1002C000704730B505460020034600E05B1C9342B2
:1002D00005D2EC5CC85C201A01D1002CF6D130BDEF
:1002E000F0B480EA0102D40F4200B2EB410F02D217
:1002F0000246084611464A0042D0C30DDDB2C1F3A2
:10030000C752AD1A202D35DAC1F3160141F40002AF
:1003100004B15242C5F1200602FA06F12A41104406
:10032000B3EBD05F23D0C4B1012DA0EBC35009DCE7
:10033000F0BC4FF0004202EAC352DBB200F500000D
:1003400000F05BBB400000F1807000EBC350A0F1F7
:10035000807040EAD170490009E0490841EAC07163
:10036000A0EBC35000F50000400800EBC350F0BC08
:1003700000F03ABB6142012202EB4101001BF6E7AB
:10038000F0BC704781F00041AAE780F00040A7E789
:1003900080EA010210B502F00043400022D04A007A
:1003A0001FD0010E01EB1261C0F35600C2F35602DA
:1003B00040F4000042F40002A0FB022000047F3958
:1003C000140400D0401C50EA124001D44000491EE1
:1003D000C2B20C0604EBD010401C4008802A02D0A8
:1003E00003E0002010BD20F00100002900DA002009
:1003F000184310BD30B480EA010202F0004530F02D
:10040000004221F0004013D090B1C30DD40DC2F3CF
:100410001601C0F31600E41A41F4000140F4000292
:100420007D34914201D3641C00E04900002C02DAC3
:1004300030BC002070474FF400000023914201D3EC
:10044000891A034340084FEA4101F7D151B1914263
:1004500002D14FF0004105E002D24FF0010101E06E
:100460006FF0010103EBC450284430BC00F0BCBA6B
:100470002DE9FE4F804681EA0300C00F0C46009034
:1004800021F0004123F00045B8EB0200A94105D25C
:100490004046214690461C460B46024623F000404B
:1004A000104347D0270DC7F30A00C3F30A51029047
:1004B000401A019040286BDAC3F3130040F4801B0C
:1004C0000098924620B10023D2EB030A63EB0B0B9A
:1004D00001985946C0F14002504600F064FA0646C1
:1004E0000D4650465946019A00F06CFA10EB080090
:1004F0006141002487EA115284EAE7731A4340D02D
:10050000009A62B3019A012A4FEA075215DC001BD8
:1005100061EB02014FF0004202EA0752CDE90042CE
:10052000001C41F5801132462B4600F0A3FA03B0BF
:10053000BDE8F08F40462146F9E7001B61EB020160
:10054000001C41F5801300185B412018A2F500172C
:1005500047EB030140EAD570B6196D4111E06D0813
:100560004FEA360645EAC0754FEA0752001B61EBB9
:100570000201001C41F5801149084FEA30000019C2
:10058000514132462B4603B0BDE8F04F00F063BA4C
:100590000098012240000023D0EB020263EBE073DD
:1005A000009821464FEAE074B8EB000061EB0401CB
:1005B000E9E783F000435BE781F0004158E72DE96C
:1005C000FE4F81EA030404F0004421F0004100944E
:1005D0004FF0000B23F0004350EA01045ED052EAD2
:1005E00003045BD0C3F30A54C1F30A552C44A4F2AC
:1005F000F3340194A0FB0254C1F3130141F48011C0
:10060000C3F3130343F4801301FB024400FB034EC6
:10061000840A970A44EA815447EA8357A4FB07688F
:1006200002958D0A05FB07854FEA932C04FB0C54B9
:100630002705029D4FEA065847EA1637B5EB08052D
:100640006EEB070C870E920E47EA811742EA83127F
:10065000A7FB0201B6EB0B0164EB00042B0D43EA90
:100660000C335E1844EB1C50DA465146E7FB02019E
:10067000C5F313044FEA0B3343EA14534FEA043231
:10068000019C43EA0603A4F10C040294009CCDE90A
:1006900000B400F0EFF903B0BDE8F08F0020014690
:1006A000F9E72DE9F04D81EA030404F0004B21F055
:1006B000004514464FF0000A23F0004150EA0502BD
:1006C00020D054EA01021DD0C5F30A570246C5F3F3
:1006D0001303C1F31300C1F30A5640F4801543F429
:1006E0008013A7EB0608101BD64608F2FD3873EB03
:1006F000050002D308F1010801E092185B41B8F14E
:10070000000F03DA00200146BDE8F08D00204FF411
:100710008011064684460EE0171B73EB050705D3D0
:10072000121B63EB050306434CEA010C49084FEA30
:10073000300092185B4150EA0107EDD152EA030004
:1007400012D082EA040083EA0501084305D0101B99
:10075000AB4106D20122002306E000224FF0004305
:1007600002E06FF0010253101AEB06004CEB085147
:1007700010EB0A0041EB0B01BDE8F04D00F06BB946
:10078000C10F80EAE0700844CA079623002100F0F8
:1007900034B996230022114600F02FB90EB5C10FCF
:1007A00080EAE0700844CA07002140F233438DE834
:1007B0000E000A460B4600F05DF903B000BD0EB511
:1007C00040F2334102910021CDE900110A460B4667
:1007D00000F050F903B000BD00F0004220F00040EE
:1007E000C10DC0F3160040F400007F2901DA00209B
:1007F0007047962903DCC1F19601C84001E09639A3
:100800008840002AF4D04042704720F00040C10DDB
:10081000C0F3160040F400007F2901DA0020704781
:10082000962903DCC1F19601C8407047963988408B
:10083000704700F0004230F000400AD0C10D01F5D1
:100840006071C0F3160042EA0151C208400711432B
:10085000704700200146704730B5041E71F1000456
:1008600004DB4FF00044404264EB0101141E73F1BD
:10087000000405DB1C464FF00043524263EB0403C7
:100880008B4208BF824230BD30B5041E71F10004B6
:1008900004DB4FF00044404264EB0101141E73F18D
:1008A000000405DB1C464FF00043524263EB040397
:1008B000994208BF904230BD01F0004330B421F0AE
:1008C000004150EA010206D00A0DA2F56072C1F3A0
:1008D0001301002A02DC30BC00207047440F44EAB8
:1008E000C104C100E01830BC00EBC25000F07CB87D
:1008F000002801DBC0F10040002901DBC1F100410B
:1009000081427047002801DBC0F10040002901DB73
:10091000C1F100418842704730B50B4601460020C6
:100920002022012409E021FA02F59D4205D303FAB1
:1009300002F5491B04FA02F52844151EA2F1010232
:10094000F1DC30BD2DE9F05F0546002092469B4664
:1009500088460646814640241BE0284641464746D5
:100960002246FFF75BFC53465A46C01A914110D30A
:1009700011461846224600F016F82D1A67EB0108BA
:100980004F4622460120002100F00DF817EB000928
:100990004E41201EA4F10104DFDC484631462A46C0
:1009A0004346BDE8F09F202A04DB203A00FA02F11A
:1009B000002070479140C2F1200320FA03F319434D
:1009C00090407047202A06DBCB17203A41FA02F00C
:1009D00043EAE07306E041FA02F3D040C2F120029C
:1009E00091400843194670470029A8BF7047401C32
:1009F000490008BF20F00100704710B4B0FA80FC35
:100A000000FA0CF050EA010404BF10BC704749B171
:100A1000CCF1200421FA04F411FA0CF118BF0121E1
:100A200021430843A3EB0C01CB1D4FEA00614FEAC1
:100A3000102042BF002010BC704700EBC350104490
:100A40000029A4BF10BC7047401C490008BF20F01B
:100A5000010010BC704710B5141E73F1000408DAD1
:100A6000401C41F1000192185B411A4301D120F072
:100A7000010010BD2DE9F04D92469B4611B1B1FA2F
:100A800081F202E0B0FA80F220329046FFF78BFF4D
:100A900004460F4640EA0A0041EA0B0153465A4613
:100AA000084313D0114653EA010019D0C8F140029F
:100AB0005046FFF7B3FB05460E46504659464246A0
:100AC000FFF771FF084305D0012004E020463946B6
:100AD000BDE8F08D0020054346EAE0762C4337431D
:100AE0000A986305E40AA0EB08000022FD0A44EA24
:100AF00047540A3002D500200146E9E701051019E4
:100B00006941DDE9084500196941BDE8F04DA2E7FA
:100B100070B521F0004303430CD0C1F30A55002403
:100B2000D5EB040564EB0403D617AD1AB34102DB21
:100B30000020014670BD201841EB025170BDC1F389
:100B40000A52C1F3130140F2FF3341F480119A427B
:100B500002DA00200146704740F233439A42A2F283
:100B6000334202DC5242FFF759BBFFF71CBF0000C3
:100B7000064C074D06E0E06840F0010394E80700EA
:100B800098471034AC42F6D3FFF7B4FAF0BA000835
:100B900010BB000870B58C1810F8015B15F0070346
:100BA00001D110F8013B2A1106D110F8012B03E006
:100BB00010F8016B01F8016B5B1EF9D12B0705D40E
:100BC0000023521E0DD401F8013BFAE710F8013B57
:100BD000CB1A921C03E013F8015B01F8015B521E73
:100BE000F9D5A142D8D3002070BD10B50AF032F873
:100BF000002010BD2DE9F84F3F4988683F49FFF7B5
:100C0000C7FB0090FFF7E8FDB0F1000B01DB594690
:100C100001E0CBF100010846FFF7C0FD804600224D
:100C2000374BFFF73EFD06460022364BFFF739FDF6
:100C30000446FFF741FE824633480078032815D169
:100C4000324A51682C4AD068FFF75CFE04D84FF056
:100C50007E502F49C86009E02C4AD168264AD068E6
:100C6000FFF746FE02D800202949C86026480078D0
:100C7000012818D12649C86A5146FFF731FB0446BE
:100C80002348816A2046FFF733FE07D82049C86A07
:100C90005146FFF725FB1E49C86219E01C48806ACF
:100CA0001B49C86214E018480078022810D118497E
:100CB000C86A5146FFF726FE07D81549C86A51464B
:100CC000FFF760FB1249C86202E000201049C862C9
:100CD0000F4A916AD06AFFF78DFB0D49C860C8685A
:100CE0004FF07E51FFF70EFE03D24FF07E500849C1
:100CF000C860BDE8F88F00006803002000007A4457
:100D000000408F400020AC40A301002024000020C0
:100D10007800002010B500F041F910BD2DE9F04732
:100D20001249C8681249FFF733FB8246FFF76DFD91
:100D30001FFA80F9484600F0DFF80446FFF73FFD50
:100D4000074600220B4BFFF7ACFC0546FFF7B4FD4E
:100D50000949C8600846406A88620A46D168906AB4
:100D6000FFF716FB0449C862BDE8F087680300205E
:100D700000007A4400408F407800002070B5204A7F
:100D8000D168204A1279521E1D4B0C3353F83200A1
:100D9000FFF7F8FA1C4948610024002008610BE0C5
:100DA000174A343252F82410174A1069FFF798FA9C
:100DB00015490861601CC4B212480079A042EFDCFA
:100DC00010490879FFF7E5FC05460F4908692946EF
:100DD000FFF710FB0C490861094A91685068FFF75A
:100DE000D7FA0949886107480079401E04490C3147
:100DF00051F830000449C8610148C068086270BDFC
:100E000068030020A3010020780000201CB51920F1
:100E100015214FF480730022CDE900100A490BA080
:100E200008F093FF044654B900BF0BA007F0D0FFB1
:100E30000EA007F0CDFF12A007F0CAFF00BF2046AA
:100E400009F02EF91CBD0000810F0008616E616C75
:100E500079736973000000001B5B33316D5B452FB4
:100E6000616E616C797369735D2000004372656126
:100E70007465205461736B204661696C000000004A
:100E80001B5B306D0A0000002DE9F0471548007823
:100E9000042824D141F2883009F06CF81249C8685E
:100EA0001249FFF775FA8246FFF7AFFC1FFA80F987
:100EB000484600F021F80446FFF781FC074600226F
:100EC0000B4BFFF7EEFB0546FFF7F6FC0949C86040
:100ED0000A46D168906AFFF75BFA0649C862BDE826
:100EE000F0870000A30100206803002000007A447E
:100EF00000408F407800002070B5044600261C4852
:100F00000088A04200DB31E01948B0F8C800A042D8
:100F100002DC4FF47A7629E023466422002114484B
:100F200007F0B2FB85B2124830F81500A04206D196
:100F300005EB85004FF6FF7101EA400615E00C480D
:100F400030F815100246681C32F81000081A1146D5
:100F500031F81510091B01EB8101490091FBF0F0FC
:100F600005EB850100EB410086B200BF304670BD45
:100F7000A800002010B5FFF787FFFFF73BFE10BD6C
:100F8000FFF7CCFE09E0FFF7F9FEFFF7C3FEFFF71E
:100F9000F1FF4FF47A7008F0EDFFF4E72DE9F0412E
:100FA000394908683949FFF7F3F90746FFF714FC98
:100FB00004B23548806C08B9BDE8F0813448B0F916
:100FC0000000844209DD3248B0F90000201A0A28E6
:100FD00002DB2F4804800AE0EEE72D48B0F900005C
:100FE000001B0A2802DB2A48048000E0E4E7FA2C10
:100FF00001DB01251CE0642C03DBFA2C01DA02255D
:1010000016E0002C03DB642C01DA032510E014F158
:10101000C80F04DB14F10A0F01DA042508E014F507
:10102000967F04DB14F1C80F01DA052500E00625E0
:10103000A4F1FA0068430A2190FBF1F000F57A7000
:1010400086B240F21A40864201DD064604E040F2D4
:10105000EE20864200DA06463046FFF79AFB8046CD
:101060000C48416A4046FFF793F907460A49FFF7E3
:10107000C1F9084988620A46D168906AFFF788F981
:101080000449C86200BF97E76803002000002041C0
:10109000720100207800002000007A4438B5044630
:1010A0004FF47A7104FB01F009F036F900906A46BA
:1010B00000210A48006809F0DFF90848006809F0D3
:1010C00007FB00BF06A007F083FE0AA007F080FE22
:1010D0000DA007F07DFE00BF38BD00009401002088
:1010E0001B5B33326D5B492F656E657267795D20DE
:1010F0000000000042616C616E63652054696D659B
:1011000072205374617274001B5B306D0A00000022
:1011100070B50446012143F6FF7000F035FC002055
:101120000C4988830C49087041F2883009F0F4F8C2
:10113000054609F00BF928440849086000BF08A0DB
:1011400007F046FE0BA007F043FE0FA007F040FE9D
:1011500000BF70BD74010020980100209C01002098
:101160001B5B33326D5B492F656E657267795D205D
:101170000000000042616C616E63652054696D651A
:101180007220456E640000001B5B306D0A00000099
:1011900010B5334A5169334A9068FFF7B3FB20D248
:1011A00031480068C83030490860084600683C2172
:1011B000B0FBF1F02A4991F8221088424ED3012069
:1011C00000F0EAFB02202649A1F8440000BF27A056
:1011D00007F0FEFD2AA007F0FBFD30A007F0F8FDA8
:1011E0003CE02048806C00B910BD1D4A516A1D4A80
:1011F000926C521E1B4B53F82200FFF783FB11D257
:10120000012000F0C9FB04201549A1F8440000BFEB
:1012100016A007F0DDFD23A007F0DAFD1FA007F000
:10122000D7FD1BE00E4A516B0E4A1068FFF760FBBA
:1012300011D2012000F0B0FB08200949A1F84400B8
:1012400000BF0AA007F0C4FD1DA007F0C1FD13A058
:1012500007F0BEFD02E000200349086000BFC3E7BD
:1012600024000020680300206C0000201B5B333347
:101270006D5B572F70726F746563745D20000000A2
:101280004368617267653A4F43432050726F7465DB
:101290006374205469676765720000001B5B306DE2
:1012A0000A0000004368617267653A4F544320505A
:1012B000726F74656374205469676765720000001B
:1012C0004368617267653A4C54432050726F74658D
:1012D000637420546967676572000000012001494A
:1012E000C8707047A3010020012001494870704771
:1012F000A30100200120014988707047A30100204C
:1013000010B5012000F088FE10BD000010B502F0FD
:10131000F7FB50B100BF0BA007F05AFD0DA007F07E
:1013200057FD10A007F054FD0AE000BF05A007F02C
:101330004FFD0EA007F04CFD0AA007F049FD00BFCD
:1013400010BD00001B5B33326D5B492F636D645D24
:10135000200000004C6F616420446574656374650F
:10136000640000001B5B306D0A0000004E6F204CD3
:101370006F616420576173204465746563746564AC
:101380000000000000200149C8707047A301002040
:101390000020014948707047A30100200020014946
:1013A00088707047A301002010B5002000F034FEC3
:1013B00010BD000010B51E48806C00B910BD1D4A5C
:1013C000D16A1B4A926C521E194B53F82200FFF748
:1013D00099FA11D2012000F0E6FA80201549A1F80F
:1013E000440000BF14A007F0F3FC18A007F0F0FCC5
:1013F0001EA007F0EDFC19E00E4AD16B0C4A1068F4
:10140000FFF776FA12D2012000F0CDFA4FF4807087
:101410000849A1F8440000BF07A007F0D9FC15A0B7
:1014200007F0D6FC11A007F0D3FC00BF00BFC5E752
:1014300068030020240000201B5B33336D5B572FB3
:1014400070726F746563745D20000000446973639B
:1014500068617267653A4F54442050726F746563D7
:101460007420546967676572000000001B5B306D73
:101470000A0000004469736368617267653A4C54FE
:10148000442050726F746563742054696767657295
:101490000000000010B508F059FF1E490968884295
:1014A00001D8002010BD1C48007808B10020F9E7E1
:1014B0001A48C07818B1002019498877F2E7174810
:1014C0000078032807D015480078012803D00020B1
:1014D00013498877E6E7124A1169104A1279521EB9
:1014E000104B53F83200FFF703FA03D200200C49E7
:1014F0008877D7E70A4A51690B4A5069FFF7F8F92C
:1015000003D2002006498877CCE701200449887778
:1015100000BFC7E79C01002098010020A301002024
:101520007401002074030020780000202DE9F041B0
:101530003548C76801255EE034480079411B3248D0
:101540000C3050F8316039463046FEF71BFF044638
:101550002F4841692046FFF7D5F949D24FF00008DE
:101560002A480079411B28480C3000EBC10004795F
:101570003CB92748007F00F0020008BB4FF001088B
:101580001EE022480179601C814209D12048808BED
:10159000611E01228A40104090B94FF001080FE00F
:1015A0001B48808B611E01228A40104040B91848B8
:1015B000808B611C01228A40104008B94FF001085D
:1015C000B8F1010F13D100BF12A007F001FC611C9C
:1015D00015A007F0FDFB18A007F0FAFB00BF0C48B0
:1015E000818B0120A040014388B20949888300E033
:1015F00006E0681CC5B205480079401CA8429BDC87
:1016000000BFBDE8F081000068030020A3010020B6
:10161000740100201B5B33326D5B492F656E657270
:1016200067795D200000000042616C616E63652097
:1016300043656C6C3A2564001B5B306D0A0000004A
:1016400010B5FFF727FF18B1FFF770FF00F002F8A1
:1016500010BD000010B50D48808BB0B10B49888BD0
:10166000002100F091F909498869FFF717FD012071
:101670000749087000BF07A007F0AAFB0AA007F0FF
:10168000A7FB0DA007F0A4FB00BF10BD7401002054
:10169000980100201B5B33326D5B492F656E6572CC
:1016A00067795D200000000042616C616E63652017
:1016B00053746172740000001B5B306D0A000000FF
:1016C00010B554480078012804D0022818D0032807
:1016D0006DD12BE0504A1168504AD068FFF712F9DB
:1016E0000DD8012000F058F900BF4DA007F070FBA5
:1016F00050A007F06DFB52A007F06AFB00BF57E057
:10170000454A9168454AD068FFF7F2F80DD80120A4
:1017100000F049F900BF42A007F05AFB4AA007F0C9
:1017200057FB47A007F054FB00BF41E03948407821
:10173000F0B9494890F8440000F00F00C0B93648AD
:10174000807F012814D0344A5168344AD068FFF7AA
:10175000CFF80DD2002000F01FF900BF30A007F035
:1017600037FB3EA007F034FB35A007F031FB00BF8C
:1017700028488078D0B93848B0F8440000F4F870B0
:10178000A0B9254AD168254AD068FFF7BBF80DD229
:10179000002000F008F900BF21A007F019FB33A0DA
:1017A00007F016FB26A007F013FB00BF00E000BF08
:1017B00000BF1848407831490978884211D015484F
:1017C0004078012802D100F0E7F806E011480078DF
:1017D000042802D1002000F0DFF80E4840782749A5
:1017E00008700C48807826490978884211D0094849
:1017F0008078012802D100F0D6F806E0054800788C
:10180000042802D1002000F0CEF8024880781C495C
:10181000087010BDA3010020740100207800002092
:101820001B5B33326D5B492F656E657267795D2096
:101830000000000053746F70204368617267650098
:101840001B5B306D0A00000053746F702044697395
:101850006368617267650000240000205374617240
:101860007420436861726765000000005374617200
:10187000742044697363686172676500A001002089
:10188000A10100201CB5192016214FF4007300227D
:10189000CDE90010164917A008F057FA044654B9CC
:1018A00000BF16A007F094FA19A007F091FA1DA046
:1018B00007F08EFA00BF204608F0F2FB0420142344
:1018C00000221A4900901AA008F03EFE1A4908604A
:1018D0000846006850B900BF08A007F079FA17A0C1
:1018E00007F076FA0FA007F073FA00BF1CBD0000E6
:1018F00051190008656E6572677900001B5B333112
:101900006D5B452F656E657267795D200000000094
:10191000437265617465205461736B204661696C24
:10192000000000001B5B306D0A0000001111000870
:1019300062616C616E6365009401002043726561B1
:1019400074652054696D6572204661696C00000001
:101950000A4840780A4908700848807809490870A0
:101960004FF4FA7008F006FB06E0FFF769FEFFF798
:10197000A7FEC82008F0FEFAF7E70000A301002048
:10198000A0010020A101002070B504460D462946A3
:10199000204601F04DF970BD10B5044621460120E6
:1019A00001F0FCF910BD10B504462146022001F0FB
:1019B000F5F910BD70B54D49C8680021FEF798FFD4
:1019C00014D1012240214A4802F0BCFE01228021AC
:1019D000474802F0B7FE01221102454802F0B2FE6C
:1019E00001225102424802F0ADFE7EE03F49C86844
:1019F000FEF71FFF044600223E4BFEF72DFF15D8D1
:101A0000012240213A4802F09DFE012280213848FF
:101A100002F098FE01221102354802F093FE0022E6
:101A20004FF40071324802F08DFE5EE02F49C86825
:101A3000FEF7FFFE044600222F4BFEF70DFF16D8DF
:101A4000012240212A4802F07DFE012280212848FF
:101A500002F078FE00224FF48071254802F072FEF9
:101A600000224FF40071224802F06CFE3DE01F4955
:101A7000C868FEF7DEFE04460022204BFEF7ECFEAF
:101A800016D8012240211A4802F05CFE0022802173
:101A9000174802F057FE00224FF48071144802F0FC
:101AA00051FE00224FF40071114802F04BFE1CE081
:101AB0000E49C8684FF07E51FEF71AFF15D8002274
:101AC00040210B4802F03EFE00228021084802F02F
:101AD00039FE00224FF48071054802F033FE0022E7
:101AE0004FF40071024802F02DFE70BD7800002016
:101AF000000C01400000D03F0000E03F0000E83F44
:101B00001CB5192000904FF4007300220A4901907F
:101B10000AA008F01AF9044654B900BF09A007F05A
:101B200057F90CA007F054F90FA007F051F900BFC6
:101B3000204608F0B5FA1CBD35200008696E666FB6
:101B4000000000001B5B33316D5B452F696E666FD3
:101B50005D200000437265617465205461736B20E1
:101B60004661696C000000001B5B306D0A000000DC
:101B7000F0B593B000BFADA007F02AF9AFA007F011
:101B800027F9BEA007F024F900BFBE49886AFEF716
:101B900050FE05462A460B46BBA103A804F06AFB8B
:101BA00000BFA2A007F014F903A9C0A007F010F924
:101BB000B2A007F00DF900BFB249C86AFEF739FEBE
:101BC00005462A460B46BAA103A804F053FB00BF02
:101BD00096A007F0FDF803A9B4A007F0F9F8A7A0B4
:101BE00007F0F6F800BFBBA007F0F2F8A549C868F7
:101BF000B949FEF7CDFB0746FEF71BFE05462A4610
:101C00000B46B6A103A804F035FB00BF87A007F080
:101C1000DFF803A9A5A007F0DBF898A007F0D8F833
:101C200000BFACA007F0D4F89649C869FEF701FEE2
:101C300005462A460B46AFA103A804F01BFB00BFD4
:101C40007AA007F0C5F803A998A007F0C1F88BA007
:101C500007F0BEF800BF8B49086AFEF7EAFD0546AB
:101C60002A460B46AAA103A804F004FB00BF6FA0FC
:101C700007F0AEF803A98DA007F0AAF87FA007F03F
:101C8000A7F800BF7F494869FEF7D3FD05462A46FD
:101C90000B46A6A103A804F0EDFA00BF63A007F06D
:101CA00097F803A981A007F093F874A007F090F8C3
:101CB00000BF74490869FEF7BCFD05462A460B467D
:101CC000A4A103A804F0D6FA00BF58A007F080F83A
:101CD00003A976A007F07CF868A007F079F800BFA8
:101CE00068498869FEF7A5FD05462A460B46A1A16D
:101CF00003A804F0BFFA00BF4CA007F069F803A9DD
:101D00006AA007F065F85DA007F062F800BF71A057
:101D100007F05EF89E494868FEF78BFD05462A46A7
:101D20000B469CA103A804F0A5FA00BF3FA007F052
:101D30004FF803A95DA007F04BF850A007F048F852
:101D400000BF93498868FEF774FD05462A460B4696
:101D500097A103A804F08EFA00BF34A007F038F86A
:101D600003A952A007F034F844A007F031F800BFEF
:101D7000002419E0864951F82400FEF75AFD621C40
:101D8000CDE9000191A103A804F074FA00BF27A0D7
:101D900007F01EF803A945A007F01AF837A007F0CE
:101DA00017F800BF601CC4B27948806CA042E1D82B
:101DB00048A007F00DF8002427E07549343151F8A8
:101DC0002400FEF736FD05460E468648808B01212D
:101DD000A1400840002801DD83A000E032A0621C81
:101DE00083A1CDE90056029003A804F043FA00BF96
:101DF0000EA006F0EDFF03A92CA006F0E9FF1FA03E
:101E000006F0E6FF00BF601CC4B281480079A04222
:101E1000D3DC00BF05A006F0DBFF7E4806F0D8FF4C
:101E200016A006F0D5FF00BF13B0F0BD1B5B306DF0
:101E30005B442F696E666F5D200000002F2A2A2AFE
:101E40002A2A2A2A2A2A2A2A2A2A2A2A2A2A2A2AF2
:101E50002A2A2A2A2A2A2A2A2A2A2A2A2A2A2A2AE2
:101E60002A2A2A2A2A2A2A2A2A2A2A2A2A2A2A2AD2
:101E70002A2A2A2A2A2A2A2A2A2A2F001B5B306D7C
:101E80000A000000780000204261747465727920B5
:101E90005265616C204361706163697479203D20F3
:101EA00025302E3366412F480000000025730000C6
:101EB000426174746572792052656D61696E204368
:101EC00061706163697479203D2025302E3366414D
:101ED0002F4800000D0A00000000C84242617474DF
:101EE00065727920534F43203D2025302E316625E1
:101EF0002500000043656C6C204D617820566F6CA6
:101F000074616765203D2025302E33665600000041
:101F100043656C6C204D696E20566F6C746167650B
:101F2000203D2025302E33665600000043656C6C42
:101F3000204D617820566F6C746167652044696636
:101F4000666572656E6365203D2025302E336656CA
:101F50000000000043656C6C204176657261676526
:101F600020566F6C74616765203D2025302E3366E6
:101F70005600000042617474657279205265616C8C
:101F800020506F776572203D2025302E3366570034
:101F9000680300204261747465727920566F6C7416
:101FA000616765203D2025302E3366560000000015
:101FB000426174746572792043757272656E742023
:101FC0003D2025302E3366410000000054656D70C1
:101FD0006174757265202564203D2025302E3166A0
:101FE00000000000740100202D2D2D3E0000000097
:101FF00043656C6C252D326420566F6C7461676587
:10200000203D20252D352E336656202573000000F7
:10201000A301002078B3000818B90121044A117007
:1020200004E0012802D10021014A1170704700002C
:10203000A20100200BE006480078012801D1FFF73B
:1020400097FDFFF7B7FC44F6206007F093FFF2E737
:10205000A201002010B52F480088FA302D490880D1
:102060002D480078012809D108460088FA2805DBA8
:1020700001F01AFD00202749088005E02648007875
:1020800010B900202349088024480088FA302349E9
:10209000088023480078012809D108460088FA28DA
:1020A00005DB01F0C1FC00201C49088005E01C484C
:1020B000007810B90020194908801A480088FA30C1
:1020C000184908801848007801280ED10846018870
:1020D0000088401C134A1080B1F5FA6F05DB01F04F
:1020E000AFFC00200F49088005E00F48007810B9C8
:1020F00000200C4908800D480078012808D10C48C0
:102100000078012804D101F083FC00200749087001
:1021100010BD000016000020110000201800002053
:10212000120000201A0000201300002010000020E0
:1021300014000020012001490870704710000020A1
:102140001CB5192013214FF400730022CDE90010B3
:102150000A490BA007F0F9FD044654B900BF0AA0D4
:1021600006F036FE0DA006F033FE11A006F030FE9C
:1021700000BF204607F094FF1CBD0000C1230008EB
:102180006D6F6E69746F72001B5B33316D5B452F31
:102190006D6F6E69746F725D20000000437265613F
:1021A0007465205461736B204661696C0000000007
:1021B0001B5B306D0A00000070B55A480078042897
:1021C00022D159498868FEF734FB0446574A584BD8
:1021D000FEF75AFB09D954498868FEF72AFB0446E2
:1021E000524A544BFEF738FB0DD803204D49087076
:1021F00000BF51A006F0ECFD54A006F0E9FD55A08B
:1022000006F0E6FD00BF70BD47498868FEF711FB88
:102210000446464A464BFEF71FFB3DD242498868BA
:10222000FEF707FB0446414A424BFEF72DFB33D233
:1022300003203C490870494800684949884214D342
:102240004848807F012815D00020444908600420B8
:102250003449087000BF38A006F0BAFD42A006F06D
:10226000B7FD3CA006F0B4FD04E03C480068FA303D
:102270003A49086041480078032851D003203F497B
:10228000087000BF2CA006F0A3FD3DA006F0A0FD45
:1022900030A006F09DFD43E023498868FEF7C9FAA7
:1022A0000446224A224BFEF7EFFA17D800202B49AA
:1022B000086001201B4908703048007801282FD0A1
:1022C00001202E49087000BF1BA006F081FD31A03F
:1022D00006F07EFD1FA006F07BFD21E01249886814
:1022E000FEF7A7FA0446114A124BFEF7B5FA17D8C3
:1022F00000201A49086002200A4908701F48007827
:1023000002280DD002201D49087000BF0AA006F067
:102310005FFD25A006F05CFD0EA006F059FD00BF94
:1023200000BF70E7A3010020680300207B14AE47C4
:10233000E17A943FE17A94BF1B5B33326D5B492FA6
:102340006D6F6E69746F725D2000000057616B6580
:10235000205570001B5B306D0A000000200000203B
:1023600080EE360074010020456E74727920536C43
:10237000656570204D6F6465000000001C00002042
:10238000456E747279205374616E646279204D6F6A
:1023900064650000456E74727920436861726765F8
:1023A000204D6F6465000000456E747279204469A9
:1023B00073636861726765204D6F6465000000009B
:1023C00006E0FFF747FEFFF7F7FEFA2007F0D2FD21
:1023D000F7E7000010B500BF05A006F0F9FC09A062
:1023E00006F0F6FC0CA006F0F3FC00BF10BD0000E8
:1023F0001B5B33336D5B572F70726F746563745D55
:1024000020000000424D535F50726F746563744842
:1024100077446576696365001B5B306D0A000000D8
:1024200010B50E4890F8440000F02000A8B9012033
:10243000FFF7B9FA0948B0F8440040F02000074916
:10244000A1F8440000BF06A006F0C2FC09A006F0F7
:10245000BFFC10A006F0BCFC00BF10BD2400002093
:102460001B5B33336D5B572F70726F746563745DE4
:10247000200000004469736368617267653A4F43E6
:10248000442050726F746563742054696767657285
:10249000000000001B5B306D0A00000010B50E4804
:1024A00090F8440000F00100A8B90120FFF774FA89
:1024B0000948B0F8440040F001000749A1F8440081
:1024C00000BF06A006F084FC09A006F081FC0FA066
:1024D00006F07EFC00BF10BD240000201B5B3333E0
:1024E0006D5B572F70726F746563745D2000000020
:1024F0004368617267653A4F562050726F74656326
:102500007420546967676572000000001B5B306DC2
:102510000A00000010B500BF05A006F059FC09A094
:1025200006F056FC0CA006F053FC00BF10BD0000E6
:102530001B5B33336D5B572F70726F746563745D13
:1025400020000000424D535F50726F746563744801
:10255000774F7672640000001B5B306D0A0000004C
:1025600010B50E4890F8440000F04000A8B90120D2
:10257000FFF719FA0948B0F8440040F04000074955
:10258000A1F8440000BF06A006F022FC09A006F056
:102590001FFC10A006F01CFC00BF10BD2400002092
:1025A0001B5B33336D5B572F70726F746563745DA3
:1025B000200000004469736368617267653A5343A1
:1025C000442050726F746563742054696767657244
:1025D000000000001B5B306D0A00000010B50E48C3
:1025E00090F8440000F01000A8B90120FFF7DBF9D3
:1025F0000948B0F8440040F010000749A1F8440031
:1026000000BF06A006F0E4FB09A006F0E1FB0FA066
:1026100006F0DEFB00BF10BD240000201B5B33333F
:102620006D5B572F70726F746563745D20000000DE
:102630004469736368617267653A55562050726FDA
:102640007465637420546967676572001B5B306D45
:102650000A0000001CB5192014214FF480730022D9
:10266000CDE900100A490BA007F06FFB044654B9EE
:1026700000BF0AA006F0ACFB0DA006F0A9FB11A05C
:1026800006F0A6FB00BF204607F00AFD1CBD0000B7
:10269000912A000870726F74656374001B5B33319C
:1026A0006D5B452F70726F746563745D2000000070
:1026B000437265617465205461736B204661696C77
:1026C000000000001B5B306D0A00000010B5B2482E
:1026D000B0F8440000287DD0AF4890F8440000F0E6
:1026E0000100C8B1AC4A9168AC4AD06AFEF700F963
:1026F00011D2A948B0F8440020F00100A649A1F881
:10270000440000BFA6A006F063FBAAA006F060FB91
:10271000ADA006F05DFB78E09F4890F8440000F023
:102720000400E8B19C4A916A9C4A1068FEF7E0F800
:102730006BD29948B0F8440020F004009649A1F803
:102740004400A3494878FFF727F900BF94A006F09A
:102750003FFBA0A006F03CFB9BA006F039FB54E039
:102760008D4890F8440000F00800E8B18A4A916B67
:102770008A4A1068FEF7C6F847D28748B0F8440086
:1027800020F008008449A1F8440091494878FFF7F7
:1027900003F900BF82A006F01BFB93A006F018FB14
:1027A00089A006F015FB30E07B4890F8440000F06B
:1027B000020050B391480068C8309049086008464C
:1027C00000683C21B0FBF1F0734991F82310884276
:1027D0001BD300E038E00020884908606E48B0F85C
:1027E000440020F002006C49A1F844007849487880
:1027F000FFF7D2F800BF6AA006F0EAFA80A006F060
:10280000E7FA71A006F0E4FA00BF634890F84400CC
:1028100000F01000C8B1604A1169604AD068FEF744
:1028200071F811D25C48B0F8440020F010005A4909
:10283000A1F8440000BF5AA006F0CAFA75A006F03D
:10284000C7FA61A006F0C4FAA5E0534890F8440026
:1028500000F08000E8B1504A116B504A1068FEF752
:1028600047F8F1D24C48B0F8440020F080004A49C3
:10287000A1F8440056498878FFF795F800BF48A0B2
:1028800006F0A6FA69A006F0A3FA4FA006F0A0FA97
:1028900081E04148B0F8440000F48070E8B13E4A5D
:1028A000116C3E4A1068FEF72DF874D23A48B0F821
:1028B000440020F480703849A1F8440044498878E5
:1028C000FFF771F800BF36A006F082FA5DA006F0AF
:1028D0007FFA3DA006F07CFA5DE02F4890F84400B6
:1028E00000F0200040B35D480068C8305B490860D4
:1028F000084600683C21B0FBF1F0274991F8201010
:10290000884248D30020554908602348B0F8440065
:1029100020F020002049A1F844002D498878FFF7D5
:1029200042F800BF1EA006F053FA4DA006F050FA80
:1029300025A006F04DFA2EE0174890F8440000F06C
:10294000400040B345480068C83044490860084624
:1029500000683C21B0FBF1F00F4991F8211088424A
:1029600019D300203D4908600B48B0F8440020F01E
:1029700040000949A1F8440015498878FFF713F889
:1029800000BF07A006F024FA3BA006F021FA0EA033
:1029900006F01EFA00BF10BD2400002068030020CE
:1029A0001B5B33326D5B492F70726F746563745DAE
:1029B000200000004368617267653A4F56205265F7
:1029C0006C696576650000001B5B306D0A000000D5
:1029D000A30100204368617267653A4F5443205257
:1029E000656C6965766500004368617267653A4C9D
:1029F00054432052656C69657665000070000020C4
:102A00004368617267653A4F43432052656C69655C
:102A1000766500004469736368617267653A55566C
:102A20002052656C69657665000000004469736337
:102A300068617267653A4F54442052656C696576E7
:102A4000650000004469736368617267653A4C54BD
:102A5000442052656C6965766500000074000020B2
:102A60004469736368617267653A4F4344205265F5
:102A70006C6965766500000044697363686172671C
:102A8000653A5343442052656C69657665000000E1
:102A900006E000F007F8FFF719FEC82007F06AFA11
:102AA000F7E7000010B50B480078012806D002288F
:102AB00007D0032808D0042808D106E0FEF768FBF9
:102AC00005E0FEF777FC02E001E000E000BF00BF98
:102AD00010BD0000A301002000B589B01848009087
:102AE000184801901848029018480390184806901A
:102AF000184805901848049001208DF81C00052105
:102B00008DF81D1001218DF81E108DF81F1040F654
:102B10001C41ADF8201041F26801ADF8221002F01E
:102B200017FE684600F0C2F9FFF70AFBFFF792FDB7
:102B3000FEF76CF9FEF7A6FEFEF7E2FF09B000BD56
:102B400021240008612500089D240008DD250008D7
:102B500035210008D52300081525000838B50020C8
:102B600000900024694600F017FB9DF8000000F07B
:102B7000010038B144F001042C48006810B12B4921
:102B8000086880479DF8000000F0020038B144F06A
:102B900002042648406810B12449486880479DF8DF
:102BA000000000F0040038B144F004041F488068BD
:102BB00010B11E49886880479DF8000000F00800A9
:102BC00038B144F008041948C06810B11749C86802
:102BD00080479DF8000000F0100038B144F0100468
:102BE0001248006910B11149086980479DF800003A
:102BF00000F0200038B144F020040C48406910B1C6
:102C00000A49486980479DF8000000F0800038B10B
:102C100044F080040548806910B104498869804700
:102C20002146002000F098FE38BD0000B4030020CB
:102C300070B504460D46ADB91948007804F01F017F
:102C400008431749087008464078C4F34411084304
:102C50001349487008468078C4F38421084310491A
:102C6000887016E0012D14D10D48007804F01F0182
:102C700088430B49087008464078C4F344118843E0
:102C80000749487008468078C4F384218843044982
:102C9000887003220249012000F0E4FD70BD0000AD
:102CA000DC0100201CB5182027490871402048711C
:102CB0001920C8720822091D042000F0D3FD082243
:102CC0006946042000F0A0F99DF8000000F07F00A4
:102CD0001D490979884229D19DF801001A4949798D
:102CE000884223D19DF802001749897988421DD175
:102CF0009DF803001449C979884217D19DF8040052
:102D00001149097A884211D19DF805000E49497A86
:102D100088420BD19DF806000B49897A884205D17B
:102D20009DF807000849C97A88420CD000BF07A067
:102D300006F04EF80AA006F04BF816A006F048F888
:102D400000BF00BFFEE71CBDD00300201B5B33317A
:102D50006D5B452F627137363932305D20000000DF
:102D60004251373639583020636F6E66696720727A
:102D700065676973746572206661696C2C506C6557
:102D800061736520726573657420424D5320626FD4
:102D9000617264001B5B306D0A00000070B5044670
:102DA0000D462DB90848407920430749487104E091
:102DB00005484079A04304494871034841790520FA
:102DC00000F0CAFD70BD0000D003002010B5002146
:102DD000042000F0C1FD0121042000F0BDFD02210E
:102DE000042000F0B9FD10BD2DE9F0412A49502022
:102DF00000F0D2F92849891C592000F0CDF9264964
:102E0000491C512000F0C8F92349343991F8341095
:102E100001F00C0140F26D1202EB41011E4A343AFE
:102E200092F8362001EB5210FDF7B8FC064600225E
:102E30001A4BFDF736FC0446FDF73EFD18490860C5
:102E40001548343890F8340000F00C0040F26D1151
:102E500001EB40001049343991F8361000EB511065
:102E6000104908800C48343890F8350000F0800094
:102E700048B10948343890F835004042404240B2E9
:102E80000949087006E00448343890F8350040B22B
:102E900005490870BDE8F0810404002000408F401F
:102EA000D0010020D4010020D601002070B50446D6
:102EB000FFF78CFF4FF4FA7007F05CF800F0B6FCF7
:102EC000FFF792FF1C2221463148FDF7B7F9314840
:102ED000807920F00700801C2E4988710846C0794F
:102EE00020F00F00401CC871217F2A48807961F3CF
:102EF000C40028498871617F2648C07961F30610B3
:102F00002449C871A17F2348007A61F387102149C1
:102F10000872E17F1F48007A61F305101D490872AD
:102F2000618C1D4A92F90020881AFDF729FC06469B
:102F30001A4801683046FDF75DFA0546FDF765FC65
:102F400000F6F870C0F3071012494872218C124A3B
:102F500092F90020881AFDF713FC06460F48016815
:102F60003046FDF747FA0546FDF74FFCC0F3071062
:102F700008498872FFF796FE00BF09A005F028FFF8
:102F80000CA005F025FF13A005F022FF00BF70BDC7
:102F9000B4030020D0030020D6010020D00100207F
:102FA0001B5B33326D5B492F627137363932305DCE
:102FB000200000004251373639583020496E69747C
:102FC00069616C697A65207375636365737366758F
:102FD0006C2100001B5B306D0A00000010B5094930
:102FE000042000F063F90748001F407900F0010059
:102FF00030B90448001F0079C00908B1012010BD94
:103000000020FCE7D40300202DE9F74191B00D46E4
:103010001746202108A8FDF72AF908AC20216846A8
:10302000FDF725F90820ADF8040000208DF80A000E
:1030300011A800900120ADF806000821ADF8141089
:1030400001218DF81A1004947900ADF816100222AF
:1030500069462D4802F06FFC02280ED000BF2BA05D
:1030600005F0B6FE2EA005F0B3FE36A005F0B0FECA
:1030700000BF002014B0BDE8F08111208DF84000A1
:1030800020788DF841000722022110A800F092FD5F
:103090000646641C2078B0420CD000BF1BA005F08F
:1030A00097FE2AA005F094FE26A005F091FE00BF31
:1030B0000020DFE714F8010C28704FF001081FE032
:1030C000641C07220121204600F074FD0646641CA2
:1030D0006D1C2078B0420CD000BF0CA005F078FE2B
:1030E00024A005F075FE17A005F072FE00BF0020B9
:1030F000C0E714F8010C287008F1010000F0FF0887
:10310000B845DDDB0120B5E7B00100201B5B3331A2
:103110006D5B452F627137363932305D200000001B
:103120005265616420526567697374657220426CF0
:103130006F636B2057697468204352432043616971
:103140006C0000001B5B306D0A000000526561647A
:1031500020526567697374657220426C6F636B20DF
:10316000435243203120436865636B204661696C9C
:1031700000000000526561642052656769737465E0
:103180007220426C6F636B20435243204368656337
:103190006B204661696C000033B58BB00D46202171
:1031A00001A8FDF764F80820ADF8080000208DF8AC
:1031B0000E000BA801900120ADF80A000821ADF81F
:1031C000181001218DF81E100AA805900221ADF8F3
:1031D0001A10022201A91B4802F0ADFB02280DD0F3
:1031E00000BF19A005F0F4FD1CA005F0F1FD24A01E
:1031F00005F0EEFD00BF00200DB030BD11208DF8B0
:1032000024009DF828008DF825000722022109A836
:1032100000F0D0FC04469DF82900A0420CD000BF6D
:1032200009A005F0D5FD18A005F0D2FD14A005F009
:10323000CFFD00BF0020DFE79DF8280028700120A7
:10324000DAE70000B00100201B5B33316D5B452FD6
:10325000627137363932305D20000000526561649A
:1032600020526567697374657220427974652057CE
:1032700069746820435243204661696C0000000075
:103280001B5B306D0A000000526561642052656767
:1032900069737465722042797465204352432043F8
:1032A0006865636B204661696C00000033B58BB0C4
:1032B0000D46202101A8FCF7DAFF0820ADF8080030
:1032C00000208DF80E000BA801900120ADF80A0037
:1032D0000821ADF8181001218DF81E100AA80590DC
:1032E0000421ADF81A10022201A9274802F023FB9D
:1032F00002280DD000BF25A005F06AFD28A005F02A
:1033000067FD30A005F064FD00BF00200DB030BDAA
:1033100011208DF824009DF828008DF82500072243
:10332000022109A800F046FC04469DF82900A042AD
:103330000CD000BF15A005F04BFD24A005F048FD02
:1033400020A005F045FD00BF0020DFE70722012196
:103350000DF12A0000F02EFC04469DF82B00A0423F
:1033600009D000BF22A005F033FD25A005F030FDF7
:1033700000BF0020CAE79DF828009DF82A1040EA07
:10338000012028800120C1E7B00100201B5B333100
:103390006D5B452F627137363932305D2000000099
:1033A0005265616420526567697374657220576F56
:1033B0007264205769746820435243204661696CE7
:1033C000000000001B5B306D0A0000005265616464
:1033D00020526567697374657220576F7264204369
:1033E0005243203120436865636B204661696C005D
:1033F0005B42513736395830204552524F525D00AA
:103400005265616420526567697374657220576FF5
:10341000726420435243203220436865636B204628
:1034200061696C0D0A0000001FB54FF40040009068
:10343000002001900290032003906946014800F0AB
:10344000DFFF1FBD000801401FB54FF40040009092
:103450000120019000200290032003906946024859
:1034600000F0CEFF1FBD00000008014070B52049EC
:103470002A20FFF71BFF50B900BF1EA005F0A8FCD3
:1034800021A005F0A5FC27A005F0A2FC00BF18486C
:103490002A3890F82B0016492A3991F82A1040EA68
:1034A00001242046FDF775F90546204801684FF0D4
:1034B0008140FCF76DFF06462946FCF769FF1C4971
:1034C000C8611C4991F9001001EB8100FDF758F922
:1034D00005461748C1692846FCF702FF1449C86130
:1034E000C8691549FCF786FF1149C86170BD000025
:1034F000FA0300201B5B33316D5B452F6271373659
:103500003932305D200000005570646174652042DE
:1035100061747465727920566F6C746167652046BA
:1035200061696C001B5B306D0A000000D001002057
:1035300008040020D601002000007A442DE9F05F45
:103540000024A346A146A2460A221F490C20FFF7E9
:103550005BFD50B900BF1DA005F03AFC20A005F0AE
:1035600037FC26A005F034FC00BFDFF85C90002497
:1035700026E099F8010099F8001000EB01201FFAED
:1035800080FB2048B0F900000BFB00F04FF47A718B
:10359000B0FBF1FA1C4890F9000082445046FDF758
:1035A0000EF907460022194BFDF77BF80546FDF79B
:1035B00083F9174941F8240009F10209601CC4B2DB
:1035C000052CD6DBBDE8F09FDC0300201B5B33310C
:1035D0006D5B452F627137363932305D2000000057
:1035E0005570646174652043656C6C20566F6C7413
:1035F000616765204661696C000000001B5B306DEF
:103600000A000000D4010020D601002000408F40B5
:10361000080400202DE9FF4721493220FFF746FE2C
:1036200050B900BF1FA005F0D3FB23A005F0D0FBCD
:1036300026A005F0CDFB00BF1948323890F83300C2
:103640001749323991F8321040EA012A0AF4004051
:1036500028B16FEA0A00401C80B2C0F1000A1D4880
:103660000068FDF7E6F804460D465046FDF796F86B
:10367000194A1A4BCDE90001FCF7A1FF0646224684
:103680002B46FDF70EF88046154A164BFCF797FFC0
:10369000CDE90201FDF710F913498861BDE8FF8704
:1036A000020400201B5B33316D5B452F627137369E
:1036B0003932305D2000000055706461746520432C
:1036C000757272656E74204661696C001B5B306DAB
:1036D0000A000000D8010020E17A14AE47E1204042
:1036E0008DEDB5A0F7C6B03E080400202DE9F04FDF
:1036F00085B04FF0000BDA46002004908146364832
:103700000078B0B10020344908701821042000F07E
:1037100023F950B900BF31A005F05AFB34A005F0E1
:1037200057FB3AA005F054FB00BF4FF4FA6006F0D7
:1037300021FC022237492C20FFF766FC50B900BF5C
:1037400026A005F045FB2AA005F042FB2FA005F0BE
:103750003FFB00BFDFF8BC90002438E099F801007F
:1037600099F8001040EA012B5846FDF728F8074663
:10377000294A2A4BFCF723FF0546FDF79DF88246B0
:103780005046FDF756F805464FF06632244BFCF7DD
:1037900013FF0746884651462248FCF7F9FD0546C7
:1037A000FDF747F83A464346CDE90001FCF779FFBB
:1037B000CDE90201FDF780F80490049802F03AFB8D
:1037C000194941F82400601CC4B209F10209012C16
:1037D000C4DB05B0BDE8F08FD70100201B5B33319F
:1037E0006D5B452F627137363932305D2000000045
:1037F000557064617465205473782054656D7065EC
:10380000726174757265204661696C001B5B306D76
:103810000A000000FC0300207978CF81E508393FD9
:1038200066660A4000401C461C04002010B5FFF7E5
:103830000BFE0122D1030A4800F084FF4FF47A7096
:1038400006F098FB00224FF40041054800F07AFF93
:10385000FFF7EAFD4FF47A7006F08CFB10BD000014
:10386000000801402DE9F0418CB007460D46164690
:10387000202104A8FCF7FBFC00200090019002909E
:10388000039004AC102004F8010B04F8017B2878A5
:1038900004F8010B0722032104A800F08BF9207023
:1038A0004FF001080EE0641C6D1C28782070072280
:1038B0000121204600F07EF96070641C08F10100CF
:1038C00000F0FF08B045EEDB0820ADF80400002052
:1038D0008DF80A000DF1110000907000401CADF849
:1038E0000600012269460B4802F025F801280ED097
:1038F00000BF09A005F06CFA0CA005F069FA14A04D
:1039000005F066FA00BF00200CB0BDE8F081012090
:10391000FAE70000B00100201B5B33316D5B452FDF
:10392000627137363932305D200000005772697499
:103930006520526567697374657220426C6F636BB2
:10394000205769746820435243204661696C000027
:103950001B5B306D0A00000030B585B004460D4693
:103960000020009001900290039010208DF810002C
:103970008DF811408DF812500722032104A800F0A1
:1039800019F98DF813000820ADF8040000208DF817
:103990000A000DF1110000900320ADF8060001228D
:1039A00069460A4801F0C7FF01280DD000BF08A0F2
:1039B00005F00EFA0BA005F00BFA13A005F008FABB
:1039C00000BF002005B030BD0120FBE7B0010020A2
:1039D0001B5B33316D5B452F627137363932305D99
:1039E000200000005772697465205265676973741E
:1039F0006572204279746520576974682043524388
:103A0000204661696C0000001B5B306D0A000000FD
:103A100010B5FFF7FFFD024880690249886010BDBC
:103A2000080400206803002010B5FFF71FFD0248BE
:103A3000C0690249486010BD0804002068030020E6
:103A400070B500240025FFF751FE18E0114951F828
:103A500024001149FCF756FF0FD80E4951F82400F5
:103A60000E49FCF745FF08D80A4850F8242028469C
:103A7000691CCDB20A4941F82020601CC4B2094833
:103A80004079A042E2DC06488564294600F03CF813
:103A900070BD00001C04002000005CC20000FA425F
:103AA00068030020A301002010B5FFF747FD0020A8
:103AB00011E00F4951F820200E4941F820200C490F
:103AC00051F820200B49283941F8302001EBC00182
:103AD0004860411CC8B2084909798142E9DC0648BE
:103AE0000179064B08220348283800F030F810BD51
:103AF000080400209C030020A3010020496F000857
:103B000010B5FFF76BFA10BD2DE9F04105460E46E2
:103B1000012718E0002412E0621C55F8221055F825
:103B20002400FCF7EFFE09D255F82480601C55F8FC
:103B3000200045F82400601C45F82080641CF01B20
:103B4000A042E9D87F1CB742E4D3BDE8F0812DE95B
:103B5000F04705460F46164699464FF000080024E8
:103B60004FF0010818E0002410E0621C02FB06512F
:103B700004FB0650C847002807DD621C02FB065103
:103B800004FB0650324607F0BEF8641CA7EB0800A1
:103B9000A042EAD808F10108B845E4D3BDE8F087AF
:103BA00000BFFEE710B5024800F0F5F810BD0000B8
:103BB000B802002070B503460C46002016E08021B4
:103BC00011E000F080051DB14506280E504001E0CF
:103BD0004506280E1D780D4005B150400D4601EBFD
:103BE000D576C6F347010029EBD15B1C251EA4F155
:103BF0000106F4B2E3D170BD704710B54FF48050A8
:103C000000F0F0FB10BD72B600BFFEE710B5044631
:103C10002189206800F084FD10BD704770B504460E
:103C200094F82050012D01D0022D7DD151B920688A
:103C3000C06800F0030080B9606A40F40010606260
:103C4000012070BD2068006900F0030028B9606A97
:103C500040F4001060620120F3E7206800F5D8709E
:103C600000EB0110006800F004009060906840B91B
:103C7000206800F5D87000EB01100068400D10605E
:103C800007E0206800F5D87000EB01100068C0085C
:103C90005060206800F5D87000EB0110006800F05B
:103CA0000200D060206800F5D87000EB0110406879
:103CB00000F00F001061206800F5D87000EB0110D3
:103CC000406800F47F40000A9061206800F5D870D9
:103CD00000EB01104068000C5061206800F5D870BE
:103CE00000EB011080681870206800F5D87000EBB8
:103CF0000110806800F47F40000A5870206800F5C9
:103D0000D87000EB0110806800F47F00000C987000
:103D1000206800F5D87000EB01108068000ED870A4
:103D2000206800F5D87000E02FE000EB0110C068BB
:103D30001871206800F5D87000EB0110C06800F41D
:103D40007F40000A5871206800F5D87000EB011020
:103D5000C06800F47F00000C9871206800F5D870EE
:103D600000EB0110C068000ED87131B92068C0683E
:103D700040F020002668F06005E02068006940F00F
:103D800020002668306100205BE7606A40F48020F4
:103D90006062012055E72DE9F05F044600252068A8
:103DA00046692068D0F80490206887682068D0F8B9
:103DB0000CA02068D0F810B02068D0F8188006F069
:103DC0000100002855D007F00100C0B10120216892
:103DD000886007F0020018B1204600F071FA0EE08A
:103DE00007F0040010B145F4006508E007F0080092
:103DF00010B145F4805502E0204600F060FA07F467
:103E00008070C8B14FF480702168886007F400703A
:103E100018B1204600F056FA0EE007F4806010B1A9
:103E200045F4005508E007F4006010B145F4804502
:103E300002E0204600F045FA07F48030C8B14FF4A4
:103E400080302168886007F4003018B1204600F007
:103E50003BFA0EE007F4802010B145F4004508E07D
:103E600007F4002010B145F4803502E0204600F050
:103E70002AFA06F0080038B10AF0100020B145F423
:103E8000007510202168C86006F0040040B10AF0F7
:103E9000080028B108202168C860204600F0B0F969
:103EA00006F0020038B12068C06800F0030010B1CD
:103EB000204600F0A7F906F0400038B10BF01000E2
:103EC00020B145F4806510202168086106F02000CB
:103ED00040B10BF0080028B1082021680861204695
:103EE00000F0EAF906F0100038B12068006900F02F
:103EF000030010B1204600F0E0F906F4003040B1B4
:103F000009F0100028B1102021684860204600F018
:103F1000D5F906F4803040B109F0080028B1082036
:103F200021684860204600F0D0F906F4004088B3CC
:103F300009F0040078B306F4807020B108F00100A5
:103F400008B145F0010506F4007020B108F0020048
:103F500008B145F0020506F4806020B108F00400C5
:103F600008B145F0040506F40060A0B108F0700047
:103F700088B108F07000402817D006DC10280BD05C
:103F800020280CD0302819D10CE0502810D06028FF
:103F900014D110E01DE019E045F008050FE045F0F0
:103FA00010050CE045F0200509E045F0400506E06D
:103FB00045F0800503E045F4807500E000BF00BFD8
:103FC0002068806920F070002168886104202168E1
:103FD00048602DB1606A284360622046FFF71DFEED
:103FE000BDE8F09F70B504460CB9012070BD94F88F
:103FF000200010B9204600F0AFF82068006840F0BB
:1040000001002168086000F0A3FB05460DE000F008
:104010009FFB401B0A2808D9606A40F400306062A8
:10402000052084F820000120E0E72068406800F0C7
:1040300001000028EBD02068006820F00200216811
:10404000086000F085FB05460DE000F081FB401B99
:104050000A2808D9606A40F400306062052084F8BC
:1040600020000120C2E72068406800F0020000281C
:10407000EBD1207E012806D12068006840F0800046
:104080002168086005E02068006820F08000216851
:104090000860607E012806D12068006840F040007A
:1040A0002168086005E02068006820F04000216871
:1040B0000860A07E012806D12068006840F020003A
:1040C0002168086005E02068006820F02000216871
:1040D0000860E07E012806D12068006820F010000A
:1040E0002168086005E02068006840F01000216841
:1040F0000860207F012806D12068006840F0080091
:104100002168086005E02068006820F00800216848
:104110000860607F012806D12068006840F0040034
:104120002168086005E02068006820F0040021682C
:104130000860D4E902010843216908436169084322
:104140006168491E08432168C8610020606201203F
:1041500084F82000002049E710B586B0044600200E
:1041600002900390049005902249206888423ED135
:1041700000BF2148C06940F000701F49C86108466F
:10418000C06900F00070019000BF00BF00BF08468A
:10419000806940F0040088610846806900F00400EE
:1041A000019000BF00BFC81402900020039004904B
:1041B00002A9124800F024F94FF480500290022026
:1041C00003900320059002A90C4800F019F9002281
:1041D0001146142000F03AFB142000F027FB0222C5
:1041E0001146152000F032FB152000F01FFB06B031
:1041F00010BD0000006400400010024000080140B3
:104200007047000010B592B0044610AB09AA002117
:104210002046FFF703FD60B100BF14A004F0D8FDF5
:1042200017A004F0D5FD1CA004F0D2FD00BF12B011
:1042300010BD1C2209A96846FCF700F8DDE9100151
:10424000CDE90701242269461548006804F064FF9F
:1042500050B100BF05A004F0BBFD12A004F0B8FDF2
:104260000DA004F0B5FD00BF00BFE0E71B5B3331DC
:104270006D5B452F6472765F63616E5D20000000A8
:1042800063616E2072656164206D6573736167653B
:10429000206572726F7200001B5B306D0A000000B7
:1042A000E001002063616E2073656E64206D7120F3
:1042B0006572726F720000007047704770477047F8
:1042C000704770477047704770477047014600223B
:1042D00091F82100022808D00420886300BF002044
:1042E00081F8200000BF012070470868006820F0B6
:1042F0000E000B6818600868006820F001000B6869
:10430000186091F8403001209840CB6B5860012034
:1043100081F8210000BF002081F8200000BF104676
:10432000E2E7000070B50446002594F82100022859
:1043300003D00420A063012548E02068006820F035
:104340000E00216808602068006820F001002168E4
:1043500008601F492068884201D1012026E01C49DD
:1043600014312068884201D110201FE018492831FB
:104370002068884201D1801518E015493C31206839
:10438000884201D1801411E01149503120688842DF
:1043900002D14FF4803009E00D4964312068884231
:1043A00002D14FF4801001E04FF0807008490839C5
:1043B0004860012084F8210000BF002084F820001C
:1043C00000BF606B10B12046616B8847284670BD06
:1043D0000800024010B50446B4F5805F01D1FEF735
:1043E000BDFB10BD10B5044604480068204020B154
:1043F000024804602046FFF7EDFF10BD14040140A1
:104400002DE9F8470346002294466EE14FF001087B
:1044100008FA02F4D1F8008008EA0400A0427DD135
:10442000DFF8DCA2D1F80480A8EB0A09D0453AD025
:1044300014DCB8F1030F50D009DCB8F1000F31D013
:10444000B8F1010F1CD0B8F1020F49D120E0B8F14A
:10445000110F18D0B8F1120F42D11EE0B9F5881F24
:1044600025D006DCB9F5803F20D0B9F5801F37D1C3
:104470001AE0B9F5001F18D0B9F5041F30D117E0C4
:10448000D1F80CC02DE0D1F80C8008F1040C28E024
:10449000D1F80C8008F1080C23E0D1F80C8008F169
:1044A0000C0C1EE000BF00BF00BF00BF00BF00BF7C
:1044B000D1F80880B8F1000F02D14FF0040C0BE0E6
:1044C000D1F80880B8F1010F03D14FF0080C1C613E
:1044D00002E04FF0080C5C6103E04FF0000C00E0DC
:1044E00000BF00BFFF2801D8984601E003F104088F
:1044F0004646FF2802D84FEA820803E0A2F10808E6
:104500004FEA88084746D6F800804FF00F0909FAAD
:1045100007F928EA09080CFA07F900E088E048EAF8
:104520000908C6F80080D1F8048008F08058B8F176
:10453000805F7DD100BFDFF8CC81D8F8188048F0CB
:104540000108DFF8C091C9F81880C846D8F818806B
:1045500008F00108CDF8008000BF00BF4FEAB9386D
:104560004FEA920958F829504FEA82784FEA1879B1
:104570004FF00F0808FA09F825EA0805DFF88881E6
:10458000434502D14FF0000816E0DFF88081434533
:1045900002D14FF001080FE0DFF87481434502D1EA
:1045A0004FF0020808E0DFF86C81434502D14FF07C
:1045B000030801E04FF004084FEA82794FEA1979C5
:1045C00008FA09F848EA0505DFF84C814FEA920934
:1045D00048F82950D1F8048008F48038B8F5803FB5
:1045E0000AD1DFF83881D8F8008048EA0008DFF8FF
:1045F0002C91C9F8008009E0DFF82081D8F800800C
:1046000028EA0008DFF81491C9F80080D1F8048086
:1046100008F40038B8F5003F10D1DFF8008108F148
:104620000408D8F8008048EA0008DFF8F09000E0BD
:104630005AE009F10409C9F800800DE0DFF8DC80D8
:1046400008F10408D8F8008028EA0008DFF8CC90C8
:1046500009F10409C9F80080D1F8048008F4801831
:10466000B8F5801F0ED1DFF8B48008F10808D8F83B
:10467000008048EA0008DFF8A49009F10809C9F8A9
:1046800000800DE0DFF8948008F10808D8F8008079
:1046900028EA0008DFF8849009F10809C9F80080C9
:1046A000D1F8048008F40018B8F5001F0ED1DFF827
:1046B0006C8008F10C08D8F8008048EA0008DFF8A0
:1046C0005C9009F10C09C9F800800DE0DFF84C801E
:1046D00008F10C08D8F8008028EA0008DFF83C90C0
:1046E00009F10C09C9F80080521CD1F8008028FAA1
:1046F00002F8B8F1000F7FF489AEBDE8F88700003A
:10470000000011100010024000080140000C0140A0
:104710000010014000140140080001400004014065
:10472000024693680B400BB1012000E00020704767
:1047300010B5C26821EA020302EA010443EA044315
:10474000036110BD0AB1016101E00B040361704710
:1047500001480068704700000000002010B50848BC
:10476000006840F0100006490860032000F0ACF833
:10477000002000F007F800F02BF8002010BD00002A
:104780000020024070B504460E4800784FF47A715C
:10479000B1FBF0F00C490968B1FBF0F5284600F0D8
:1047A0000FFC08B1012070BD102C07D20022214659
:1047B000501E00F04BF80548046001E00120F2E7CC
:1047C0000020F0E7080000200C000020040000207A
:1047D00008B500BF1348806940F0010011498861A5
:1047E0000846806900F00100009000BF00BF00BFD4
:1047F0000846C06940F08050C8610846C06900F0B2
:104800008050009000BF00BF052000F05DF800BFA1
:104810000549486820F0E06040F00070486000BF43
:1048200008BD00000010024000000140014608469B
:10483000002809DB00F01F0301229A4043099B0076
:1048400003F1E023C3F8002100BF70472DE9F05FBA
:1048500080460D461646002701F020FD07463946E2
:104860002A46334601F00700C0F1070ABAF1040FE7
:1048700002D94FF0040A01E0C0F1070AD14600F165
:10488000040ABAF1070F02D24FF0000A01E0A0F1CA
:10489000030AD4464FF0010A0AFA09FAAAF1010AFA
:1048A0000AEA020A0AFA0CFA4FF0010B0BFA0CFBA7
:1048B000ABF1010B0BEA030B4AEA0B04214640461D
:1048C00001F0F4FCBDE8F09F00BF00F00702064BCA
:1048D00019684FF6FF031940044B0B4343EA0221CA
:1048E000014B196000BF70470CED00E00000FA05B5
:1048F00070B504460D460CB9012070BD5A480068D9
:1049000000F00700A8420ED25748006820F00700C8
:104910002843554908600846006800F00700A8428F
:1049200001D00120E9E7207800F0020002281DD123
:10493000207800F00400042805D14C48406840F479
:10494000E0604A494860207800F00800082805D156
:104950004648406840F460504449486043484068D5
:1049600020F0F000A168084340494860207800F03A
:10497000010078B36068012806D13C48006800F463
:10498000003090B90120B8E76068022806D13748A6
:10499000006800F0007040B90120AEE733480068BD
:1049A00000F0020008B90120A7E73048406820F075
:1049B0000300616808432D494860FFF7C9FE0646B9
:1049C00009E0FFF7C5FE801B41F28831884202D919
:1049D000032092E707E02548406800F00C0061687A
:1049E000B0EB810FEDD12048006800F00700A8422D
:1049F0000ED91D48006820F0070028431A490860B6
:104A00000846006800F00700A84201D0012074E7C2
:104A1000207800F00400042807D11448406820F4EE
:104A2000E060E168084311494860207800F0080020
:104A3000082808D10D48406820F46050216940EAF8
:104A4000C1000A49486000F03FF808494968C1F3CD
:104A50000311074A515CC8400649086006480068CF
:104A6000FFF790FE002048E70020024000100240BF
:104A70003AAE00080C000020040000200148006845
:104A8000704700000C00002000B5FFF7F7FF044955
:104A90004968C1F30221034A515CC84000BD0000CF
:104AA000001002404AAE000800B5FFF7E7FF0449D6
:104AB0004968C1F3C221034A515CC84000BD0000EF
:104AC000001002404AAE0008F0B585B00FF26C0C41
:104AD0009CE8E01001A8A0E8E0101CA52D68009556
:104AE00000210022002300240020194D696801F0F4
:104AF0000C05F5B1042D02D0082D19D101E015489F
:104B000019E001ADC1F38346AC5D01F4803555B1C8
:104B10000F4D6D68C5F340451DF805200D4D6543EB
:104B2000B5FBF2F302E00C4D04FB05F3184602E07E
:104B300000BF084800BF00BF05B0F0BD0203040578
:104B4000060708090A0B0C0D0E0F101001020000D9
:104B50000010024000127A0000093D00F8B504463A
:104B60000CB90120F8BD207800F00100002878D0B1
:104B7000F848406800F00C0004280CD0F548406864
:104B800000F00C00082811D1F248406800F4803091
:104B9000B0F5803F0AD1EF48006800F400300028EB
:104BA0005FD0606800285CD10120DBE700BF60684F
:104BB000B0F5803F06D1E748006840F48030E54911
:104BC000086028E0606858B9E248006820F4803046
:104BD000E04908600846006820F4802008601AE078
:104BE0006068B0F5A02F0BD1DA48006840F480204F
:104BF000D84908600846006840F4803008600AE040
:104C0000D448006820F48030D24908600846006823
:104C100020F48020086000BF606888B1FFF798FD2D
:104C2000054606E0FFF794FD401B642801D90320E8
:104C300098E7C848006800F400300028F2D010E07F
:104C4000FFF786FD054606E0FFF782FD401B64285E
:104C500001D9032086E7BF48006800F4003000282F
:104C6000F2D1207800F00200022857D1B9484068FC
:104C700000F00C0050B1B748406800F00C00082864
:104C800018D1B448406800F4803098B9B148006841
:104C900000F0020020B12069012801D0012061E765
:104CA000AC48006820F0F800616940EAC100A949F9
:104CB000086033E02069E8B10120A7490860FFF7E8
:104CC00047FD054606E0FFF743FD401B022801D9DA
:104CD000032047E79F48006800F002000028F2D058
:104CE0009C48006820F0F800616940EAC1009949D9
:104CF000086013E0002098490860FFF729FD054689
:104D000006E0FFF725FD401B022801D9032029E713
:104D10009048006800F002000028F2D1207800F0EE
:104D2000080008282DD1A069B8B101208B4908607E
:104D3000FFF70EFD054606E0FFF70AFD401B0228BF
:104D400001D903200EE78348406A00F002000028E2
:104D5000F2D0012000F082FF13E000207F490860BC
:104D6000FFF7F6FC054606E0FFF7F2FC401B0228C1
:104D700001D90320F6E67748406A00F002000028D7
:104D8000F2D1207800F00400042873D10027714884
:104D9000C06900F0805070B900BF6E48C06940F033
:104DA00080506C49C8610846C06900F0805000908E
:104DB00000BF00BF01276A48006800F48070B0B9E6
:104DC0006748006840F4807065490860FFF7C0FCE0
:104DD000054606E0FFF7BCFC401B642801D9032010
:104DE000C0E65F48006800F480700028F2D000BF81
:104DF000E068012806D15748006A40F00100554993
:104E0000086227E0E06858B95248006A20F00100C3
:104E1000504908620846006A20F00400086219E060
:104E2000E06805280BD14B48006A40F0040049496E
:104E300008620846006A40F0010008620AE045483E
:104E4000006A20F00100434908620846006A20F029
:104E50000400086200BFE068A0B1FFF779FC0546D6
:104E600009E0FFF775FC401B41F28831884202D906
:104E7000032077E622E03748006A00F002000028AD
:104E8000EFD012E0FFF764FC054608E0FFF760FC96
:104E9000401B41F28831884201D9032062E62D4847
:104EA000006A00F002000028F0D1012F05D1294846
:104EB000C06920F080502749C86100BFE069C8B3CD
:104EC0002448406800F00C00082860D0E0690228FF
:104ED00048D1002020490866FFF73AFC054606E065
:104EE000FFF736FC401B022801D903203AE6194897
:104EF000006800F000700028F2D1206AB0F5803F11
:104F000007D11448406820F40030A16808431149D3
:104F10004860D4E9080108430E49496821F4741136
:104F200008430C49486001200B490866FFF710FC54
:104F3000054607E03DE0FFF70BFC401B022801D9C6
:104F400003200FE60348006800F000700028F2D04C
:104F50002FE0000000100240000042428004424264
:104F600000700040002014490866FFF7F1FB054679
:104F700006E0FFF7EDFB401B022801D90320F1E515
:104F80000E48006800F000700028F2D111E0E069DE
:104F9000012800D1E6E50948466806F48031206A18
:104FA000814204D106F47011606A814201D001206F
:104FB000D8E50020D6E50000000042420010024083
:104FC00070B504462546681EB0F1807F01D30120EC
:104FD0000FE0681E4FF0E02148610F214FF0FF30D5
:104FE00001F064F900204FF0E0218861072008619A
:104FF000002070BD704770472DE9F84F04462068C7
:1050000005682068C668206847694FF00009CA46ED
:1050100005F00F09B9F1000F0AD105F0200038B1F1
:1050200006F0200020B1204600F097FFBDE8F88F81
:10503000B9F1000F71D007F0010018B906F49070B3
:1050400000286AD005F0010030B106F4807018B174
:10505000206C40F00100206405F0040030B107F03E
:10506000010018B1206C40F00200206405F002003D
:1050700030B107F0010018B1206C40F0040020644A
:1050800005F0080048B106F0200010B907F0010053
:1050900018B1206C40F008002064206C68B305F063
:1050A000200028B106F0200010B1204600F055FF86
:1050B00020684069C0F3801A206C00F0080010B925
:1050C000BAF1000F22D0204600F01CFF2068406992
:1050D00000F04000B0B12068406920F04000216835
:1050E0004861A06B50B15648A16B4863A06BFFF7B5
:1050F00019F910B1A06B416B88470CE02046FFF70F
:105100007AFF08E02046FFF776FF04E02046FFF72D
:1051100072FF0020206489E7FFE7206B012878D127
:1051200005F01000002874D006F01000002870D0A0
:1051300000BF002000902068006800902068406850
:10514000009000BF00BF2068406900F04000C0B37D
:10515000A06B006840681FFA80F8B8F1000F2FD0EC
:10516000A08D40452CDDA4F82E80A06B80692028FE
:105170001FD02068C06820F480702168C860206853
:10518000406920F00100216848612068406920F0F2
:10519000400021684861202084F83E000020206300
:1051A0002068C06820F010002168C860A06BFFF77D
:1051B0008DF8A08DE28D801A81B22046FFF71AFF8C
:1051C00034E7FFE7A08DE18D401A1FFA80F8E08DEB
:1051D000E8B1B8F1000F1AD02068C06820F49070D0
:1051E0002168C8602068406920F00100216848619A
:1051F000202084F83E00002020632068C06820F052
:1052000010002168C86041462046FFF7F3FE0DE715
:10521000FFE705F0800030B106F0800018B12046AD
:1052200000F0AFFF02E705F0400030B106F04000AB
:1052300018B1204600F081FEF8E600BFF6E6000057
:10524000F15E000810B504460CB9012010BDA0693C
:1052500000B100E000BF94F83D0028B9002084F8B8
:105260003C00204600F028F8242084F83D00206807
:10527000C06820F400502168C860204600F0E0FEBD
:105280002068006920F49040216808612068406926
:1052900020F02A00216848612068C06840F400506E
:1052A0002168C86000202064202084F83D0084F834
:1052B0003E000020CAE7000010B586B0044600207A
:1052C00002900390049005903749206888422FD1BE
:1052D00000BF3648806940F4804034498861084600
:1052E000806900F48040019000BF00BF00BF084605
:1052F000806940F0040088610846806900F004007D
:10530000019000BF00BF48150290022003900320C7
:10531000059002A92648FFF773F84FF480600290C9
:1053200000200390049002A92148FFF769F839E0B2
:1053300020492068884235D100BF1C48C06940F42C
:1053400000301A49C8610846C06900F40030019075
:1053500000BF00BF00BF0846806940F004008861BC
:105360000846806900F00400019000BF00BF0420DF
:105370000290022003900320059002A90C48FFF739
:105380003FF80820029000200390049002A90848EA
:10539000FFF736F8012202212620FFF757FA2620D0
:1053A000FFF744FA06B010BD00380140001002407B
:1053B000000801400044004070B504460D46164602
:1053C00094F83E00202816D105B10EB9012070BD19
:1053D00000BF94F83C00012801D10220F7E701202A
:1053E00084F83C0000BF0020206332462946204656
:1053F00000F0A4FEEBE70220E9E7000010B5044648
:105400000B492068884212D100BF0AA003F0E0FCDB
:105410000DA003F0DDFC10A003F0DAFC00BF0120BA
:1054200000F030FC01220E490E4800F086F810BD55
:10543000004400401B5B306D5B442F6472765F72EA
:10544000733438355D20000072733438352072783B
:1054500020646F6E650000001B5B306D0A00000069
:10546000DF010020240300202DE9F84F04460E46FA
:10547000174699464FF0000A94F83D0020285AD16B
:1054800006B117B90120BDE8F88F00BF94F83C00C1
:10549000012801D10220F6E7012084F83C0000BF7A
:1054A00000202064212084F83D00FFF751F9824656
:1054B000A784E784A068B0F5805F04D1206910B9A3
:1054C0000025B04602E035464FF0000800BF00203E
:1054D00084F83C0000BF1BE0534600228021204698
:1054E000CDF8009000F07DFE08B10320CBE745B970
:1054F000B8F80000C0F308002168486008F102080D
:1055000003E02878216848606D1CE08C401EE08430
:10551000E08C0028E0D15346002240212046CDF8FF
:10552000009000F05EFE08B10320ACE7202084F874
:105530003D000020A7E70220A5E710B5034693F839
:105540003D00202823D101B10AB9012010BD00BFC0
:1055500093F83C00012801D10220F7E7012083F8ED
:105560003C0000BF19629A84DA840020186421206C
:1055700083F83D0000BF002083F83C0000BF18689E
:10558000C06840F080001C68E0600020DEE7022078
:10559000DCE7000010B504460B492068884212D1B0
:1055A00000BF0AA003F014FC0DA003F011FC10A032
:1055B00003F00EFC00BF002000F064FB01220E4946
:1055C0000E48FFF7F9FE10BD004400401B5B306D34
:1055D0005B442F6472765F72733438355D2000004F
:1055E000727334383520747820646F6E6500000063
:1055F0001B5B306D0A000000DF0100202403002047
:1056000010B5FAF791FD0149086010BDAC0100200A
:105610007047000010B502480068FAF789FD10BD18
:10562000AC0100202DE9F05F81460D4695F80A8017
:10563000A87A00F008070FB1002001E0D9F80C00AB
:1056400000F0FF0A08F00200002833D0A8880621E5
:1056500001EAE01040F0F00695F804B052463146F9
:10566000484600F0EAF80446012C03D017B90020A0
:10567000BDE8F09F5946484600F0B8F90446012CB1
:1056800002D00FB90020F3E708F0010028B3484624
:1056900000F0BEF846F0010652463146484600F09A
:1056A000CCF80446012C18D0BFB90DA003F090FB34
:1056B0000020DDE728794006060E08F0010008B159
:1056C00046F0010652463146484600F0B6F8044618
:1056D000012C02D00FB90020CAE70120C8E7000062
:1056E0003C3C2D4932432D4552524F522D3E3E20D7
:1056F0004E41434B3A2073656E64696E6720726554
:1057000070656174656420616464720D0A00000054
:105710001FB504466089218908430090112001903B
:10572000002002900320039069462068FEF768FE7F
:10573000618901222068FFF705F82189012220688C
:10574000FFF700F8606908B1606980471FBD00007D
:1057500010B50248FFF7DCFF002010BDB0010020AB
:1057600070B504460026204600F0A6FA0120216903
:105770008847204600F0B0FA80250EE0204600F071
:105780008BFA2046FEF742FA00B12E43204600F085
:105790008BFA0120216988476D10002DEED120463B
:1057A00000F0A8FA304670BD2DE9F05F80460C4647
:1057B000D4F800904FF0000AE58824E04046FFF757
:1057C000CFFF064689F800600AF101001FFA80FA4F
:1057D00009F10109681E85B2A07A00F0100090B9A5
:1057E0004746AB46BBF1000F02D0384600F06CFADA
:1057F000012039698847384600F04EFA384600F0F3
:1058000053FA00BF00BF002DD8DC5046BDE8F09F22
:1058100010B50446204600F04FFA204600F03CFA4E
:10582000012021698847204600F04EFA01202169B5
:105830008847204600F038FA10BD2DE9F0410646B1
:10584000884614460027002515E04146304600F002
:10585000CDF80746012F00D10FE0A54200D10CE0A2
:10586000304600F053F8012031698847304600F097
:1058700041F8681CC5B2A542E7D900BF3846BDE86B
:10588000F0812DE9F04781460C4626680027B4F8E0
:10589000068028E0A07A00F0400028B1E17A48466E
:1058A00000F0A4F800B921E0A07A00F0800020B157
:1058B000217B484600F09AF803E03178484600F032
:1058C00095F80546761C002D04DCA07A00F008004F
:1058D00038B135B9A8F101001FFA80F8781C87B2F9
:1058E00001E005B902E0B8F1000FD3DC00BF384693
:1058F000BDE8F08710B50446204600F0E5F9012028
:1059000021698847204600F0CFF910BD10B5044644
:10591000204600F0D9F9012021698847204600F08F
:10592000BBF9012021698847204600F0C5F9012014
:105930002169884710BD2DE9F04705468846914604
:1059400000272DB1B8F1000F02D0B9F1000F02D13C
:105950003846BDE8F087A86908B1A86980470026E5
:1059600033E008EB0614A07A00F0080AA07A00F0F1
:10597000040090B91EB12846FFF74AFF02E028460E
:10598000FFF7B8FF21462846FFF74CFE0746012FD8
:1059900003D0BAF1000F00D11BE0A07A00F00100A3
:1059A00030B121462846FFF7FFFE074627810BE06E
:1059B00021462846FFF765FF074627812089E188B1
:1059C000884201D0002704E0761C4E45C9D33746F3
:1059D00000BFA07A00F0200010B92846FFF796FF1C
:1059E000E86908B1E86980473846B2E72DE9F04137
:1059F00004460F46802513E0204600F055F907EADB
:105A0000050018B1204600F057F902E0204600F0EA
:105A10005BF9012021698847204600F03DF96D10AF
:105A2000002DE9D1204600F03FF901202169884787
:105A30002646304600F040F901203169884730465B
:105A400000F02AF9304600F047F93046FEF7DEF85C
:105A500008B9012000E000208046304600F04AF9F5
:105A6000304600F021F94046BDE8F08110B50F48FE
:105A70000F4908600420486000210D488160C16022
:105A80004FF4502101614FF4001141610021017672
:105A90000121417681760021C17601774177FEF7B9
:105AA000A1FA08B1FEF7AFF810BD00000064004095
:105AB000B802002000B585B000200190029003904C
:105AC000049000BF4348806940F02000414988614C
:105AD0000846806900F02000009000BF00BF00BFB2
